{
  "address": "0x3A4f64A8F5D1601EBb3CC5A68e547eb1d9297E15",
  "abi": [
    {
      "inputs": [
        {
          "internalType": "address",
          "name": "to",
          "type": "address"
        },
        {
          "internalType": "uint256",
          "name": "timeout",
          "type": "uint256"
        },
        {
          "internalType": "uint256",
          "name": "margin",
          "type": "uint256"
        },
        {
          "internalType": "bytes32",
          "name": "tip",
          "type": "bytes32"
        }
      ],
      "stateMutability": "payable",
      "type": "constructor"
    },
    {
      "stateMutability": "payable",
      "type": "fallback"
    },
    {
      "inputs": [],
      "name": "channelDuration",
      "outputs": [
        {
          "internalType": "uint256",
          "name": "",
          "type": "uint256"
        }
      ],
      "stateMutability": "view",
      "type": "function"
    },
    {
      "inputs": [],
      "name": "channelMargin",
      "outputs": [
        {
          "internalType": "uint256",
          "name": "",
          "type": "uint256"
        }
      ],
      "stateMutability": "view",
      "type": "function"
    },
    {
      "inputs": [],
      "name": "channelRecipient",
      "outputs": [
        {
          "internalType": "address",
          "name": "",
          "type": "address"
        }
      ],
      "stateMutability": "view",
      "type": "function"
    },
    {
      "inputs": [],
      "name": "channelSender",
      "outputs": [
        {
          "internalType": "address",
          "name": "",
          "type": "address"
        }
      ],
      "stateMutability": "view",
      "type": "function"
    },
    {
      "inputs": [],
      "name": "channelTip",
      "outputs": [
        {
          "internalType": "bytes32",
          "name": "",
          "type": "bytes32"
        }
      ],
      "stateMutability": "view",
      "type": "function"
    },
    {
      "inputs": [
        {
          "internalType": "bytes32",
          "name": "_word",
          "type": "bytes32"
        },
        {
          "internalType": "uint8",
          "name": "_wordCount",
          "type": "uint8"
        }
      ],
      "name": "closeChannel",
      "outputs": [],
      "stateMutability": "nonpayable",
      "type": "function"
    },
    {
      "inputs": [],
      "name": "expireChannel",
      "outputs": [],
      "stateMutability": "nonpayable",
      "type": "function"
    },
    {
      "inputs": [],
      "name": "isActive",
      "outputs": [
        {
          "internalType": "bool",
          "name": "",
          "type": "bool"
        }
      ],
      "stateMutability": "view",
      "type": "function"
    },
    {
      "inputs": [],
      "name": "startDate",
      "outputs": [
        {
          "internalType": "uint256",
          "name": "",
          "type": "uint256"
        }
      ],
      "stateMutability": "view",
      "type": "function"
    },
    {
      "stateMutability": "payable",
      "type": "receive"
    }
  ],
  "transactionHash": "0x6f2079de30c9cc77b1141f9e51ad73a84fefce89cb3e0df03d61a01add7f6ae3",
  "args": [
    "0xB6BC30f0A3ce4A94a9fA7B89161C918bfee2e413",
    86400,
    "100000000000000000",
    "0x65462b0520ef7d3df61b9992ed3bea0c56ead753be7c8b3614e0ce01e4cac41b"
  ],
  "numDeployments": 2,
  "solcInputHash": "cfd2b7e6f7e4ac49a1e8d314e93790f8",
  "bytecode": "0x60806040526040516107e23803806107e28339810160408190526100229161006e565b600180546001600160a01b039095166001600160a01b0319958616178155600080549095163317909455426002556003929092556004556005556006805460ff191690911790556100b9565b6000806000806080858703121561008457600080fd5b84516001600160a01b038116811461009b57600080fd5b60208601516040870151606090970151919890975090945092505050565b61071a806100c86000396000f3fe6080604052600436106100845760003560e01c80631184327e116100565780631184327e1461012457806322f3e2d414610139578063ac514d2714610163578063b8adc68914610179578063e0b03d591461019957005b806304758e791461008d578063075aa0c4146100ca5780630897d04a146100ea5780630b97bc861461010e57005b3661008b57005b005b34801561009957600080fd5b506001546100ad906001600160a01b031681565b6040516001600160a01b0390911681526020015b60405180910390f35b3480156100d657600080fd5b506000546100ad906001600160a01b031681565b3480156100f657600080fd5b5061010060045481565b6040519081526020016100c1565b34801561011a57600080fd5b5061010060025481565b34801561013057600080fd5b5061008b6101af565b34801561014557600080fd5b506006546101539060ff1681565b60405190151581526020016100c1565b34801561016f57600080fd5b5061010060035481565b34801561018557600080fd5b5061008b61019436600461062d565b610276565b3480156101a557600080fd5b5061010060055481565b60065460ff166101ff5760405162461bcd60e51b815260206004820152601660248201527521b430b73732b61034b9903737ba1030b1ba34bb329760511b60448201526064015b60405180910390fd5b60035460025461020f9190610679565b42101561026c5760405162461bcd60e51b815260206004820152602560248201527f4368616e6e656c2074696d656f757420686173206e6f74206265656e2072656160448201526431b432b21760d91b60648201526084016101f6565b6102746104fc565b565b60065460ff166102c15760405162461bcd60e51b815260206004820152601660248201527521b430b73732b61034b9903737ba1030b1ba34bb329760511b60448201526064016101f6565b6102ca826105c8565b6001546001600160a01b031633146103365760405162461bcd60e51b815260206004820152602960248201527f4f6e6c792074686520726563697069656e742063616e20636c6f7365207468656044820152681031b430b73732b61760b91b60648201526084016101f6565b81610340816105c8565b60015b8260ff16811161038c5760408051602081018490520160405160208183030381529060405280519060200120915061037a826105c8565b8061038481610692565b915050610343565b5060055481146103de5760405162461bcd60e51b815260206004820152601b60248201527f496e76616c696420776f7264206f7220776f726420636f756e742e000000000060448201526064016101f6565b60ff821660006103ef6064476106ab565b9050814710156104525760405162461bcd60e51b815260206004820152602860248201527f496e73756666696369656e742062616c616e636520746f20706572666f726d206044820152673a3930b739b332b960c11b60648201526084016101f6565b6001546000906001600160a01b031661046b83856106cd565b604051600081818185875af1925050503d80600081146104a7576040519150601f19603f3d011682016040523d82523d6000602084013e6104ac565b606091505b50509050806104f45760405162461bcd60e51b81526020600482015260146024820152732330b4b632b2103a379039b2b7321022ba3432b960611b60448201526064016101f6565b505050505050565b6006805460ff191690554780156105c557600080546040516001600160a01b039091169083908381818185875af1925050503d806000811461055a576040519150601f19603f3d011682016040523d82523d6000602084013e61055f565b606091505b50509050806105c35760405162461bcd60e51b815260206004820152602a60248201527f4661696c656420746f2072657475726e2072656d61696e696e67204574686572604482015269103a379039b2b73232b960b11b60648201526084016101f6565b505b50565b6105c5816040516024016105de91815260200190565b60408051601f198184030181529190526020810180516001600160e01b03166327b7cf8560e01b1790526105c58160006a636f6e736f6c652e6c6f679050600080835160208501845afa505050565b6000806040838503121561064057600080fd5b82359150602083013560ff8116811461065857600080fd5b809150509250929050565b634e487b7160e01b600052601160045260246000fd5b8082018082111561068c5761068c610663565b92915050565b6000600182016106a4576106a4610663565b5060010190565b6000826106c857634e487b7160e01b600052601260045260246000fd5b500490565b808202811582820484141761068c5761068c61066356fea2646970667358221220db5a3b809e52ffc7f960bd6a631dba0f50840d323c527aa80e70e928a5f8aa6e64736f6c63430008110033",
  "devdoc": {
    "kind": "dev",
    "methods": {},
    "version": 1
  },
  "userdoc": {
    "kind": "user",
    "methods": {},
    "version": 1
  },
  "storageLayout": {
    "storage": [
      {
        "astId": 4,
        "contract": "contracts/EthWord.sol:EthWord",
        "label": "channelSender",
        "offset": 0,
        "slot": "0",
        "type": "t_address"
      },
      {
        "astId": 6,
        "contract": "contracts/EthWord.sol:EthWord",
        "label": "channelRecipient",
        "offset": 0,
        "slot": "1",
        "type": "t_address"
      },
      {
        "astId": 8,
        "contract": "contracts/EthWord.sol:EthWord",
        "label": "startDate",
        "offset": 0,
        "slot": "2",
        "type": "t_uint256"
      },
      {
        "astId": 10,
        "contract": "contracts/EthWord.sol:EthWord",
        "label": "channelDuration",
        "offset": 0,
        "slot": "3",
        "type": "t_uint256"
      },
      {
        "astId": 12,
        "contract": "contracts/EthWord.sol:EthWord",
        "label": "channelMargin",
        "offset": 0,
        "slot": "4",
        "type": "t_uint256"
      },
      {
        "astId": 14,
        "contract": "contracts/EthWord.sol:EthWord",
        "label": "channelTip",
        "offset": 0,
        "slot": "5",
        "type": "t_bytes32"
      },
      {
        "astId": 16,
        "contract": "contracts/EthWord.sol:EthWord",
        "label": "isActive",
        "offset": 0,
        "slot": "6",
        "type": "t_bool"
      }
    ],
    "types": {
      "t_address": {
        "encoding": "inplace",
        "label": "address",
        "numberOfBytes": "20"
      },
      "t_bool": {
        "encoding": "inplace",
        "label": "bool",
        "numberOfBytes": "1"
      },
      "t_bytes32": {
        "encoding": "inplace",
        "label": "bytes32",
        "numberOfBytes": "32"
      },
      "t_uint256": {
        "encoding": "inplace",
        "label": "uint256",
        "numberOfBytes": "32"
      }
    }
  }
}