{
  "address": "0xDD1f757D4fFEc088642aD469c5B72B1eD25302A4",
  "abi": [
    {
      "inputs": [
        {
          "internalType": "string",
          "name": "messageInput",
          "type": "string"
        },
        {
          "internalType": "uint256",
          "name": "length",
          "type": "uint256"
        }
      ],
      "name": "getHashChainArrayByMessage",
      "outputs": [
        {
          "internalType": "bytes32[]",
          "name": "",
          "type": "bytes32[]"
        }
      ],
      "stateMutability": "pure",
      "type": "function"
    },
    {
      "inputs": [
        {
          "internalType": "string",
          "name": "messageInput",
          "type": "string"
        },
        {
          "internalType": "uint256",
          "name": "length",
          "type": "uint256"
        }
      ],
      "name": "getHashChainItemByMessage",
      "outputs": [
        {
          "internalType": "bytes32",
          "name": "",
          "type": "bytes32"
        }
      ],
      "stateMutability": "pure",
      "type": "function"
    },
    {
      "inputs": [
        {
          "internalType": "string",
          "name": "messageInput",
          "type": "string"
        }
      ],
      "name": "hash",
      "outputs": [
        {
          "internalType": "bytes32",
          "name": "",
          "type": "bytes32"
        }
      ],
      "stateMutability": "pure",
      "type": "function"
    },
    {
      "inputs": [
        {
          "internalType": "string",
          "name": "payWord",
          "type": "string"
        },
        {
          "internalType": "string",
          "name": "userMessage",
          "type": "string"
        },
        {
          "internalType": "uint256",
          "name": "n",
          "type": "uint256"
        }
      ],
      "name": "isPayWordValid",
      "outputs": [
        {
          "internalType": "bool",
          "name": "",
          "type": "bool"
        }
      ],
      "stateMutability": "pure",
      "type": "function"
    }
  ],
  "transactionHash": "0x551feae89d20e77767914b93ebbc40eb85eb06515a4a67b09dae09c16228f7bf",
  "args": [],
  "numDeployments": 1,
  "solcInputHash": "fc5ddf073cee1f7fd3b303f773a0b7ec",
  "bytecode": "0x608060405234801561001057600080fd5b50610583806100206000396000f3fe608060405234801561001057600080fd5b506004361061004c5760003560e01c80630630f0a4146100515780634bbc68291461007a5780636c31cfed1461009d578063b411ee94146100be575b600080fd5b61006461005f366004610380565b6100d1565b60405161007191906103c5565b60405180910390f35b61008d610088366004610409565b6101f8565b6040519015158152602001610071565b6100b06100ab366004610380565b61023f565b604051908152602001610071565b6100b06100cc366004610476565b6102ad565b606060006100e08360016104c9565b67ffffffffffffffff8111156100f8576100f86102dd565b604051908082528060200260200182016040528015610121578160200160208202803683370190505b5090508360405160200161013591906104dc565b604051602081830303815290604052805190602001208160008151811061015e5761015e61050b565b602090810291909101015260015b8381116101ee578161017f600183610521565b8151811061018f5761018f61050b565b60200260200101516040516020016101a991815260200190565b604051602081830303815290604052805190602001208282815181106101d1576101d161050b565b6020908102919091010152806101e681610534565b91505061016c565b5090505b92915050565b600080610205858461023f565b905060008460405160200161021a91906104dc565b60408051601f1981840301815291905280516020909101209190911495945050505050565b6000808360405160200161025391906104dc565b60405160208183030381529060405280519060200120905060005b838110156101ee5760408051602081018490520160405160208183030381529060405280519060200120915080806102a590610534565b91505061026e565b6000816040516020016102c091906104dc565b604051602081830303815290604052805190602001209050919050565b634e487b7160e01b600052604160045260246000fd5b600082601f83011261030457600080fd5b813567ffffffffffffffff8082111561031f5761031f6102dd565b604051601f8301601f19908116603f01168101908282118183101715610347576103476102dd565b8160405283815286602085880101111561036057600080fd5b836020870160208301376000602085830101528094505050505092915050565b6000806040838503121561039357600080fd5b823567ffffffffffffffff8111156103aa57600080fd5b6103b6858286016102f3565b95602094909401359450505050565b6020808252825182820181905260009190848201906040850190845b818110156103fd578351835292840192918401916001016103e1565b50909695505050505050565b60008060006060848603121561041e57600080fd5b833567ffffffffffffffff8082111561043657600080fd5b610442878388016102f3565b9450602086013591508082111561045857600080fd5b50610465868287016102f3565b925050604084013590509250925092565b60006020828403121561048857600080fd5b813567ffffffffffffffff81111561049f57600080fd5b6104ab848285016102f3565b949350505050565b634e487b7160e01b600052601160045260246000fd5b808201808211156101f2576101f26104b3565b6000825160005b818110156104fd57602081860181015185830152016104e3565b506000920191825250919050565b634e487b7160e01b600052603260045260246000fd5b818103818111156101f2576101f26104b3565b600060018201610546576105466104b3565b506001019056fea2646970667358221220e582bbcdc5f753e37b835a21670e617f36bc30f451102df18b924c4997b657bb64736f6c63430008110033",
  "devdoc": {
    "kind": "dev",
    "methods": {},
    "version": 1
  },
  "userdoc": {
    "kind": "user",
    "methods": {},
    "version": 1
  },
  "storageLayout": {
    "storage": [],
    "types": null
  }
}